:100000000C9424010C9445010C9445010C94450179
:100010000C9445010C9445010C9445010C94450148
:100020000C9445010C9445010C9445010C94450138
:100030000C9445010C9445010C9445010C94450128
:100040000C9445010C9445010C9445010C94450118
:100050000C9445010C9445010C9445010C94BA0292
:100060000C9445010C9445010C9445010C944501F8
:100070000C9445010C9445010C9445010C944501E8
:100080000C9445010C9445010C9445010C944501D8
:100090000C9445010C9445010C9445010C944501C8
:1000A0000C9445010C9445010C9445010C944501B8
:1000B0000C9445010C9445010C9445010C944501A8
:1000C0000C9445010C9445010C9445010C94450198
:1000D0000C9445010C9445010C9445010C94450188
:1000E0000C9445010C9484010C949C010C94A00187
:1000F0000C94AA010C948A010C9465010C948E0155
:100100000C9480010C9477010C946B010C94980171
:100110000C947A010C94A5010C946F010C9473015A
:100120000C9492010C94A6010000210024002700E9
:100130002A002D00300033000101000004010701F6
:100140000A0100002200250028002B002E003100AB
:10015000340002010000050108010B01000020002D
:100160002300260029002C002F003200000100008F
:10017000030106010901050505050705080808082A
:10018000020202020A0A080804040404010101012F
:10019000010101010303030303030303040707072A
:1001A0000C0C0C0C0C0C0C0C0202020206060606CF
:1001B000060606060B0B0B0B0B0B0B0B010210209C
:1001C000200808102040102040800201020108048D
:1001D0000201010204081020408080402010080421
:1001E000020180040201804020100804020108047A
:1001F00002010102040810204080010204081020BE
:10020000408000000A0B02090C0D0E0807030401D0
:1002100000000000000000000000000000000000DE
:1002200000000000000000000000000000001211AB
:1002300010000000000000000000000000000000AE
:10024000000000000000000011241FBECFEFD1E22B
:10025000DEBFCDBF00E00CBF12E0A0E0B2E0EEE2F6
:10026000F9E000E00BBF02C007900D92A635B10780
:10027000D9F722E0A6E5B2E001C01D92AF35B20782
:10028000E1F70E9404030C9495040C940000815043
:10029000823108F05AC0E82FF0E08827ED5AFE4F6F
:1002A0008F4F0C9479047301770165016B016F0125
:1002B000A5017A01800184018A018E0192019801D1
:1002C0009C01A501A001A601AA01809180008F7761
:1002D000809380000895809180008F7DF9CF809178
:1002E0008000877FF5CF84B58F7784BD089584B56E
:1002F0008F7DFBCF8091B0008F778093B000089501
:100300008091B0008F7DF9CF809190008F7780939E
:1003100090000895809190008F7DF9CF809190009A
:10032000877FF5CF8091A0008F778093A0000895FC
:100330008091A0008F7DF9CF8091A000877FF5CFBD
:10034000809120018F778093200108958091200172
:100350008F7DF9CF80912001877FF5CFCF93DF93F9
:10036000282F30E0F901EE5FFD4F8491F901E4544C
:10037000FE4FD491F901EA58FE4FC491CC23A1F06D
:1003800081110E944701EC2FF0E0EE0FFF1FE45AAD
:10039000FE4FA591B491EC91ED2381E090E009F43A
:1003A00080E0DF91CF91089580E090E0FACF1F9335
:1003B000CF93DF93282F30E0F901EE5FFD4F84915A
:1003C000F901E454FE4FD491F901EA58FE4FC4916B
:1003D000CC23A9F0162F81110E944701EC2FF0E0E9
:1003E000EE0FFF1FEE5BFE4FA591B4918FB7F8940F
:1003F000EC91111108C0D095DE23DC938FBFDF9103
:10040000CF911F910895DE2BF8CFCF93DF9390E02B
:10041000FC01E454FE4F24918A589E4FFC018491C4
:100420008823D1F090E0880F991FFC01E85DFE4F12
:10043000A591B491FC01EE5BFE4FC591D491611181
:100440000EC09FB7F8948C91E22FE0958E238C9389
:100450002881E223E8839FBFDF91CF9108958FB772
:10046000F894EC91E22BEC938FBFF6CF3FB7F89462
:1004700080915B0290915C02A0915D02B0915E025E
:1004800026B5A89B05C02F3F19F00196A11DB11DEF
:100490003FBFBA2FA92F982F8827BC01CD01620F2B
:1004A000711D811D911D42E0660F771F881F991FE6
:1004B0004A95D1F708958F929F92AF92CF92EF9283
:1004C000FF920F931F93CF93DF93CDB7DEB7C65440
:1004D000D1090FB6F894DEBF0FBECDBF362FF42E74
:1004E000122F26E4E0E0F2E0DE01119601900D9279
:1004F0002A95E1F727E0289F4001299F900C1124BD
:1005000081E090E08C0F9D1F880E991EF4016081A0
:10051000832F0E94D701F40161818F2D0E94D701A2
:10052000F4016281812F0E94D701F4016381802F41
:100530000E94D701F40164818E2D0E94D701F4013D
:1005400065818C2D0E94D701F40166818A2DCA5BDA
:10055000DF4F0FB6F894DEBF0FBECDBFDF91CF9156
:100560001F910F91FF90EF90CF90AF909F908F9041
:100570000C94D7011F920F920FB60F9211242F9354
:100580003F938F939F93AF93BF9380915702909126
:100590005802A0915902B0915A023091560223E0BC
:1005A000230F2D3758F50196A11DB11D209356023A
:1005B0008093570290935802A0935902B0935A0225
:1005C00080915B0290915C02A0915D02B0915E020D
:1005D0000196A11DB11D80935B0290935C02A093D4
:1005E0005D02B0935E02BF91AF919F918F913F9159
:1005F0002F910F900FBE0F901F90189526E8230F94
:100600000296A11DB11DD2CF789484B5826084BDBD
:1006100084B5816084BD85B5826085BD85B5816006
:1006200085BD80916E00816080936E001092810084
:10063000809181008260809381008091810081603F
:100640008093810080918000816080938000809100
:10065000B10084608093B1008091B000816080938C
:10066000B000809191008260809391008091910010
:1006700081608093910080919000816080939000D0
:100680008091A10082608093A1008091A10081608F
:100690008093A1008091A00081608093A000809150
:1006A00021018260809321018091210181608093EA
:1006B00021018091200181608093200180917A0046
:1006C000846080937A0080917A00826080937A00BF
:1006D00080917A00816080937A0080917A008068AE
:1006E00080937A001092C10061E086E10E940502C9
:1006F00061E087E10E94050261E088E10E94050255
:1007000061E089E10E94050261E08AE10E94050240
:1007100061E08BE10E94050261E08CE10E9405022C
:1007200061E08DE10E94050261E08EE10E94050218
:1007300061E08FE10E94050261E080E20E94050213
:1007400061E081E20E94050261E082E20E9405020E
:1007500061E083E20E94050260E085E20E940502FA
:1007600060E086E20E94050260E087E20E940502E6
:1007700060E088E20E94050260E089E20E940502D2
:1007800060E08AE20E94050260E08BE20E940502BE
:1007900060E08CE20E940502BAE08B2E912CC0E052
:1007A0006C2EC0E07C2EAEE4EA2EA2E0FA2ED0E061
:1007B000C0E010E000E0F7018081F2E0EF0EF11CF4
:1007C0000E94AE01002E02C0880F991F0A94E2F722
:1007D000C80FD91F0F5F1F4F0430110561F7F6E4F2
:1007E000CF2EF2E0DF2EF12CE12C10E000E0F6013C
:1007F0008081F2E0CF0ED11C0E94AE01002E02C01B
:10080000880F991F0A94E2F7E80EF91E0F5F1F4F39
:100810000430110561F7CE018E0D9F1DB4010E94B9
:100820006504EB012CE1A22EB12C3BE1C32ED12CAF
:100830004AE1E42EF12C09E110E028E130E047E143
:1008400050E066E170E00E945B0253E2A52EB12CFD
:1008500062E2C62ED12C71E2E72EF12C00E210E00C
:100860002FE130E04EE150E06DE170E0CE010E94FA
:100870005B020E9436021B012C01E8EECE2EE3E063
:10088000DE2EE12CF12C0E943602621973098409D4
:100890009509683E734081059105A8F321E0C21ACD
:1008A000D108E108F10888EE280E83E0381E411CCB
:1008B000511CC114D104E104F10429F7611471043D
:1008C00009F471CF0E9400006ECF97FB072E16F43B
:1008D000009407D077FD09D00E94810407FC05D061
:1008E0003EF4909581959F4F0895709561957F4F47
:1008F0000895EE0FFF1F881F8BBF0790F691E02D24
:100900001994AA1BBB1B51E107C0AA1FBB1FA61746
:10091000B70710F0A61BB70B881F991F5A95A9F7A8
:0E09200080959095BC01CD010895F894FFCF0D
:10092E0001010101010100000101000000000101AF
:10093E00000101000101010101000001000101009F
:10094E00000101010001010001010100010101018D
:10095E00010101010000000001010101010101017D
:10096E0001010100010129002A002B002C002500A5
:06097E00260027002800FE
:00000001FF
